{
  "contractName": "LuckyBox",
  "abi": [
    {
      "inputs": [
        {
          "internalType": "contract RasilToken",
          "name": "tokenAddress",
          "type": "address"
        }
      ],
      "stateMutability": "nonpayable",
      "type": "constructor"
    },
    {
      "inputs": [],
      "name": "name",
      "outputs": [
        {
          "internalType": "string",
          "name": "",
          "type": "string"
        }
      ],
      "stateMutability": "view",
      "type": "function"
    },
    {
      "inputs": [
        {
          "internalType": "address",
          "name": "",
          "type": "address"
        }
      ],
      "name": "owner",
      "outputs": [
        {
          "internalType": "bool",
          "name": "",
          "type": "bool"
        }
      ],
      "stateMutability": "view",
      "type": "function"
    },
    {
      "inputs": [],
      "name": "purchaseTokens",
      "outputs": [],
      "stateMutability": "payable",
      "type": "function"
    }
  ],
  "bytecode": "0x60806040526040518060400160405280601a81526020017f446563656e7472616c697a6564204d61726b657420506c6163650000000000008152506000908051906020019061004f9291906100ce565b5034801561005c57600080fd5b506040516108a43803806108a4833981810160405281019061007e9190610186565b80600160006101000a81548173ffffffffffffffffffffffffffffffffffffffff021916908373ffffffffffffffffffffffffffffffffffffffff1602179055506103e860048190555050610274565b8280546100da906101f7565b90600052602060002090601f0160209004810192826100fc5760008555610143565b82601f1061011557805160ff1916838001178555610143565b82800160010185558215610143579182015b82811115610142578251825591602001919060010190610127565b5b5090506101509190610154565b5090565b5b8082111561016d576000816000905550600101610155565b5090565b6000815190506101808161025d565b92915050565b60006020828403121561019c5761019b610258565b5b60006101aa84828501610171565b91505092915050565b60006101be826101d7565b9050919050565b60006101d0826101b3565b9050919050565b600073ffffffffffffffffffffffffffffffffffffffff82169050919050565b6000600282049050600182168061020f57607f821691505b6020821081141561022357610222610229565b5b50919050565b7f4e487b7100000000000000000000000000000000000000000000000000000000600052602260045260246000fd5b600080fd5b610266816101c5565b811461027157600080fd5b50565b610621806102836000396000f3fe6080604052600436106100345760003560e01c806306fdde03146100395780633290ce2914610064578063666e1b391461006e575b600080fd5b34801561004557600080fd5b5061004e6100ab565b60405161005b919061037c565b60405180910390f35b61006c610139565b005b34801561007a57600080fd5b5061009560048036038101906100909190610282565b610237565b6040516100a29190610361565b60405180910390f35b600080546100b890610505565b80601f01602080910402602001604051908101604052809291908181526020018280546100e490610505565b80156101315780601f1061010657610100808354040283529160200191610131565b820191906000526020600020905b81548152906001019060200180831161011457829003601f168201915b505050505081565b6000341161017c576040517f08c379a00000000000000000000000000000000000000000000000000000000081526004016101739061039e565b60405180910390fd5b346003600082825461018e91906103da565b9250508190555060006101a334600454610257565b9050600160009054906101000a900473ffffffffffffffffffffffffffffffffffffffff1673ffffffffffffffffffffffffffffffffffffffff166379c6506833836040518363ffffffff1660e01b8152600401610202929190610338565b600060405180830381600087803b15801561021c57600080fd5b505af1158015610230573d6000803e3d6000fd5b5050505050565b60026020528060005260406000206000915054906101000a900460ff1681565b600081836102659190610430565b905092915050565b60008135905061027c816105d4565b92915050565b60006020828403121561029857610297610595565b5b60006102a68482850161026d565b91505092915050565b6102b88161048a565b82525050565b6102c78161049c565b82525050565b60006102d8826103be565b6102e281856103c9565b93506102f28185602086016104d2565b6102fb8161059a565b840191505092915050565b60006103136010836103c9565b915061031e826105ab565b602082019050919050565b610332816104c8565b82525050565b600060408201905061034d60008301856102af565b61035a6020830184610329565b9392505050565b600060208201905061037660008301846102be565b92915050565b6000602082019050818103600083015261039681846102cd565b905092915050565b600060208201905081810360008301526103b781610306565b9050919050565b600081519050919050565b600082825260208201905092915050565b60006103e5826104c8565b91506103f0836104c8565b9250827fffffffffffffffffffffffffffffffffffffffffffffffffffffffffffffffff0382111561042557610424610537565b5b828201905092915050565b600061043b826104c8565b9150610446836104c8565b9250817fffffffffffffffffffffffffffffffffffffffffffffffffffffffffffffffff048311821515161561047f5761047e610537565b5b828202905092915050565b6000610495826104a8565b9050919050565b60008115159050919050565b600073ffffffffffffffffffffffffffffffffffffffff82169050919050565b6000819050919050565b60005b838110156104f05780820151818401526020810190506104d5565b838111156104ff576000848401525b50505050565b6000600282049050600182168061051d57607f821691505b6020821081141561053157610530610566565b5b50919050565b7f4e487b7100000000000000000000000000000000000000000000000000000000600052601160045260246000fd5b7f4e487b7100000000000000000000000000000000000000000000000000000000600052602260045260246000fd5b600080fd5b6000601f19601f8301169050919050565b7f496e73756666696369656e742045544800000000000000000000000000000000600082015250565b6105dd8161048a565b81146105e857600080fd5b5056fea264697066735822122015e5446e0f2e5acc60a4edf25c25574f3c14d78983f417b1a613f9b5c316221564736f6c63430008050033",
  "immutableReferences": {},
  "source": "// SPDX-License-Identifier: MIT\r\npragma solidity ^0.8.4;\r\n\r\nimport \"./RasilToken.sol\";\r\nimport \"@openzeppelin/contracts/utils/math/SafeMath.sol\";\r\n\r\n\r\n\r\ncontract LuckyBox {\r\n    string public name = \"Decentralized Market Place\";\r\n\r\n    RasilToken private rasilToken;\r\n\r\n    mapping(address=>bool) public owner;\r\n\r\n    uint private balance;\r\n\r\n    uint256 private tokenMultiple ;\r\n\r\n    constructor(RasilToken tokenAddress){\r\n        rasilToken = RasilToken(tokenAddress);\r\n        tokenMultiple = 1000;\r\n    }\r\n\r\n  function purchaseTokens() public payable{\r\n        require(msg.value>0,'Insufficient ETH');\r\n        balance += msg.value;\r\n        uint amount = SafeMath.mul(msg.value,tokenMultiple);\r\n        rasilToken.mintToken(msg.sender,amount);\r\n    }\r\n\r\n\r\n}\r\n",
  "sourcePath": "E:/Personal Projects/LuckyBox/contracts/LuckyBox.sol",
  "compiler": {
    "name": "solc",
    "version": "0.8.5+commit.a4f2e591.Emscripten.clang"
  },
  "schemaVersion": "3.3.3",
  "updatedAt": "2021-06-11T11:08:38.246Z",
  "devdoc": {
    "kind": "dev",
    "methods": {},
    "version": 1
  },
  "userdoc": {
    "kind": "user",
    "methods": {},
    "version": 1
  }
}